{
  "contractName": "OrderBook",
  "abi": [
    {
      "anonymous": false,
      "inputs": [
        {
          "indexed": false,
          "internalType": "uint256",
          "name": "id",
          "type": "uint256"
        },
        {
          "indexed": false,
          "internalType": "string",
          "name": "symbol",
          "type": "string"
        },
        {
          "indexed": false,
          "internalType": "uint256",
          "name": "quantity",
          "type": "uint256"
        },
        {
          "indexed": false,
          "internalType": "uint256",
          "name": "price",
          "type": "uint256"
        },
        {
          "indexed": false,
          "internalType": "address",
          "name": "trader",
          "type": "address"
        }
      ],
      "name": "BuyOrderPlaced",
      "type": "event"
    },
    {
      "anonymous": false,
      "inputs": [
        {
          "indexed": false,
          "internalType": "uint256",
          "name": "buyOrderId",
          "type": "uint256"
        },
        {
          "indexed": false,
          "internalType": "uint256",
          "name": "sellOrderId",
          "type": "uint256"
        },
        {
          "indexed": false,
          "internalType": "string",
          "name": "symbol",
          "type": "string"
        },
        {
          "indexed": false,
          "internalType": "uint256",
          "name": "quantity",
          "type": "uint256"
        },
        {
          "indexed": false,
          "internalType": "uint256",
          "name": "price",
          "type": "uint256"
        },
        {
          "indexed": false,
          "internalType": "address",
          "name": "buyer",
          "type": "address"
        },
        {
          "indexed": false,
          "internalType": "address",
          "name": "seller",
          "type": "address"
        }
      ],
      "name": "OrderMatched",
      "type": "event"
    },
    {
      "anonymous": false,
      "inputs": [
        {
          "indexed": false,
          "internalType": "uint256",
          "name": "id",
          "type": "uint256"
        },
        {
          "indexed": false,
          "internalType": "string",
          "name": "symbol",
          "type": "string"
        },
        {
          "indexed": false,
          "internalType": "uint256",
          "name": "quantity",
          "type": "uint256"
        },
        {
          "indexed": false,
          "internalType": "uint256",
          "name": "price",
          "type": "uint256"
        },
        {
          "indexed": false,
          "internalType": "address",
          "name": "trader",
          "type": "address"
        }
      ],
      "name": "SellOrderPlaced",
      "type": "event"
    },
    {
      "inputs": [
        {
          "internalType": "uint256",
          "name": "",
          "type": "uint256"
        }
      ],
      "name": "buyOrders",
      "outputs": [
        {
          "internalType": "uint256",
          "name": "id",
          "type": "uint256"
        },
        {
          "internalType": "string",
          "name": "symbol",
          "type": "string"
        },
        {
          "internalType": "uint256",
          "name": "quantity",
          "type": "uint256"
        },
        {
          "internalType": "uint256",
          "name": "price",
          "type": "uint256"
        },
        {
          "internalType": "address",
          "name": "trader",
          "type": "address"
        }
      ],
      "stateMutability": "view",
      "type": "function",
      "constant": true
    },
    {
      "inputs": [],
      "name": "orderCount",
      "outputs": [
        {
          "internalType": "uint256",
          "name": "",
          "type": "uint256"
        }
      ],
      "stateMutability": "view",
      "type": "function",
      "constant": true
    },
    {
      "inputs": [
        {
          "internalType": "uint256",
          "name": "",
          "type": "uint256"
        }
      ],
      "name": "sellOrders",
      "outputs": [
        {
          "internalType": "uint256",
          "name": "id",
          "type": "uint256"
        },
        {
          "internalType": "string",
          "name": "symbol",
          "type": "string"
        },
        {
          "internalType": "uint256",
          "name": "quantity",
          "type": "uint256"
        },
        {
          "internalType": "uint256",
          "name": "price",
          "type": "uint256"
        },
        {
          "internalType": "address",
          "name": "trader",
          "type": "address"
        }
      ],
      "stateMutability": "view",
      "type": "function",
      "constant": true
    },
    {
      "inputs": [
        {
          "internalType": "string",
          "name": "symbol",
          "type": "string"
        },
        {
          "internalType": "uint256",
          "name": "quantity",
          "type": "uint256"
        },
        {
          "internalType": "uint256",
          "name": "price",
          "type": "uint256"
        }
      ],
      "name": "placeBuyOrder",
      "outputs": [],
      "stateMutability": "nonpayable",
      "type": "function"
    },
    {
      "inputs": [
        {
          "internalType": "string",
          "name": "symbol",
          "type": "string"
        },
        {
          "internalType": "uint256",
          "name": "quantity",
          "type": "uint256"
        },
        {
          "internalType": "uint256",
          "name": "price",
          "type": "uint256"
        }
      ],
      "name": "placeSellOrder",
      "outputs": [],
      "stateMutability": "nonpayable",
      "type": "function"
    },
    {
      "inputs": [
        {
          "internalType": "uint256",
          "name": "id",
          "type": "uint256"
        }
      ],
      "name": "getBuyOrder",
      "outputs": [
        {
          "components": [
            {
              "internalType": "uint256",
              "name": "id",
              "type": "uint256"
            },
            {
              "internalType": "string",
              "name": "symbol",
              "type": "string"
            },
            {
              "internalType": "uint256",
              "name": "quantity",
              "type": "uint256"
            },
            {
              "internalType": "uint256",
              "name": "price",
              "type": "uint256"
            },
            {
              "internalType": "address",
              "name": "trader",
              "type": "address"
            }
          ],
          "internalType": "struct OrderBook.Order",
          "name": "",
          "type": "tuple"
        }
      ],
      "stateMutability": "view",
      "type": "function",
      "constant": true
    },
    {
      "inputs": [
        {
          "internalType": "uint256",
          "name": "id",
          "type": "uint256"
        }
      ],
      "name": "getSellOrder",
      "outputs": [
        {
          "components": [
            {
              "internalType": "uint256",
              "name": "id",
              "type": "uint256"
            },
            {
              "internalType": "string",
              "name": "symbol",
              "type": "string"
            },
            {
              "internalType": "uint256",
              "name": "quantity",
              "type": "uint256"
            },
            {
              "internalType": "uint256",
              "name": "price",
              "type": "uint256"
            },
            {
              "internalType": "address",
              "name": "trader",
              "type": "address"
            }
          ],
          "internalType": "struct OrderBook.Order",
          "name": "",
          "type": "tuple"
        }
      ],
      "stateMutability": "view",
      "type": "function",
      "constant": true
    }
  ],
  "bytecode": "0x60806040526000805534801561001457600080fd5b5061156b806100246000396000f3fe608060405234801561001057600080fd5b506004361061007d5760003560e01c8063390ce0d31161005b578063390ce0d3146100f05780634a8393f314610120578063b1af1bda14610154578063f7c03b80146101845761007d565b8063225c3957146100825780632453ffa81461009e57806335cea288146100bc575b600080fd5b61009c60048036038101906100979190610d18565b6101a0565b005b6100a66102d6565b6040516100b39190610d96565b60405180910390f35b6100d660048036038101906100d19190610db1565b6102dc565b6040516100e7959493929190610e9e565b60405180910390f35b61010a60048036038101906101059190610db1565b6103ba565b6040516101179190610fd6565b60405180910390f35b61013a60048036038101906101359190610db1565b6104ed565b60405161014b959493929190610e9e565b60405180910390f35b61016e60048036038101906101699190610db1565b6105cb565b60405161017b9190610fd6565b60405180910390f35b61019e60048036038101906101999190610d18565b6106fe565b005b6000808154809291906101b290611027565b91905055506040518060a0016040528060005481526020018481526020018381526020018281526020013373ffffffffffffffffffffffffffffffffffffffff168152506002600080548152602001908152602001600020600082015181600001556020820151816001019081610229919061127b565b50604082015181600201556060820151816003015560808201518160040160006101000a81548173ffffffffffffffffffffffffffffffffffffffff021916908373ffffffffffffffffffffffffffffffffffffffff1602179055509050507f106648aafc85fd8243e4f2c8210b5b909227e26bbb3f7f1e77f40ababeebfce5600054848484336040516102c1959493929190610e9e565b60405180910390a16102d1610834565b505050565b60005481565b60016020528060005260406000206000915090508060000154908060010180546103059061109e565b80601f01602080910402602001604051908101604052809291908181526020018280546103319061109e565b801561037e5780601f106103535761010080835404028352916020019161037e565b820191906000526020600020905b81548152906001019060200180831161036157829003601f168201915b5050505050908060020154908060030154908060040160009054906101000a900473ffffffffffffffffffffffffffffffffffffffff16905085565b6103c2610b43565b600260008381526020019081526020016000206040518060a0016040529081600082015481526020016001820180546103fa9061109e565b80601f01602080910402602001604051908101604052809291908181526020018280546104269061109e565b80156104735780601f1061044857610100808354040283529160200191610473565b820191906000526020600020905b81548152906001019060200180831161045657829003601f168201915b5050505050815260200160028201548152602001600382015481526020016004820160009054906101000a900473ffffffffffffffffffffffffffffffffffffffff1673ffffffffffffffffffffffffffffffffffffffff1673ffffffffffffffffffffffffffffffffffffffff16815250509050919050565b60026020528060005260406000206000915090508060000154908060010180546105169061109e565b80601f01602080910402602001604051908101604052809291908181526020018280546105429061109e565b801561058f5780601f106105645761010080835404028352916020019161058f565b820191906000526020600020905b81548152906001019060200180831161057257829003601f168201915b5050505050908060020154908060030154908060040160009054906101000a900473ffffffffffffffffffffffffffffffffffffffff16905085565b6105d3610b43565b600160008381526020019081526020016000206040518060a00160405290816000820154815260200160018201805461060b9061109e565b80601f01602080910402602001604051908101604052809291908181526020018280546106379061109e565b80156106845780601f1061065957610100808354040283529160200191610684565b820191906000526020600020905b81548152906001019060200180831161066757829003601f168201915b5050505050815260200160028201548152602001600382015481526020016004820160009054906101000a900473ffffffffffffffffffffffffffffffffffffffff1673ffffffffffffffffffffffffffffffffffffffff1673ffffffffffffffffffffffffffffffffffffffff16815250509050919050565b60008081548092919061071090611027565b91905055506040518060a0016040528060005481526020018481526020018381526020018281526020013373ffffffffffffffffffffffffffffffffffffffff168152506001600080548152602001908152602001600020600082015181600001556020820151816001019081610787919061127b565b50604082015181600201556060820151816003015560808201518160040160006101000a81548173ffffffffffffffffffffffffffffffffffffffff021916908373ffffffffffffffffffffffffffffffffffffffff1602179055509050507f493af9d2cc12a46542ad5e4554795600a832fa070f796c7a736644682f6136916000548484843360405161081f959493929190610e9e565b60405180910390a161082f610834565b505050565b6000600190505b6000548111610b4057600060016000838152602001908152602001600020600201541115610b2d576000600190505b6000548111610b2b57600060026000838152602001908152602001600020600201541115610b1857600260008281526020019081526020016000206001016040516108b591906113f0565b6040518091039020600160008481526020019081526020016000206001016040516108e091906113f0565b604051809103902014801561092157506002600082815260200190815260200160002060030154600160008481526020019081526020016000206003015410155b15610b17576000600260008381526020019081526020016000206002015460016000858152602001908152602001600020600201541061097757600260008381526020019081526020016000206002015461098f565b60016000848152602001908152602001600020600201545b9050806001600085815260200190815260200160002060020160008282546109b79190611407565b92505081905550806002600084815260200190815260200160002060020160008282546109e49190611407565b925050819055507fb66342c9af45829fa5aec73a7a8a91db3a97e4ae04fbc48f73c9a3bc2c1d06496001600085815260200190815260200160002060000154600260008581526020019081526020016000206000015460016000878152602001908152602001600020600101846001600089815260200190815260200160002060030154600160008a815260200190815260200160002060040160009054906101000a900473ffffffffffffffffffffffffffffffffffffffff16600260008a815260200190815260200160002060040160009054906101000a900473ffffffffffffffffffffffffffffffffffffffff16604051610ae997969594939291906114bf565b60405180910390a16000600160008581526020019081526020016000206002015403610b155750610b2b565b505b5b8080610b2390611027565b91505061086a565b505b8080610b3890611027565b91505061083b565b50565b6040518060a0016040528060008152602001606081526020016000815260200160008152602001600073ffffffffffffffffffffffffffffffffffffffff1681525090565b6000604051905090565b600080fd5b600080fd5b600080fd5b600080fd5b6000601f19601f8301169050919050565b7f4e487b7100000000000000000000000000000000000000000000000000000000600052604160045260246000fd5b610bef82610ba6565b810181811067ffffffffffffffff82111715610c0e57610c0d610bb7565b5b80604052505050565b6000610c21610b88565b9050610c2d8282610be6565b919050565b600067ffffffffffffffff821115610c4d57610c4c610bb7565b5b610c5682610ba6565b9050602081019050919050565b82818337600083830152505050565b6000610c85610c8084610c32565b610c17565b905082815260208101848484011115610ca157610ca0610ba1565b5b610cac848285610c63565b509392505050565b600082601f830112610cc957610cc8610b9c565b5b8135610cd9848260208601610c72565b91505092915050565b6000819050919050565b610cf581610ce2565b8114610d0057600080fd5b50565b600081359050610d1281610cec565b92915050565b600080600060608486031215610d3157610d30610b92565b5b600084013567ffffffffffffffff811115610d4f57610d4e610b97565b5b610d5b86828701610cb4565b9350506020610d6c86828701610d03565b9250506040610d7d86828701610d03565b9150509250925092565b610d9081610ce2565b82525050565b6000602082019050610dab6000830184610d87565b92915050565b600060208284031215610dc757610dc6610b92565b5b6000610dd584828501610d03565b91505092915050565b600081519050919050565b600082825260208201905092915050565b60005b83811015610e18578082015181840152602081019050610dfd565b60008484015250505050565b6000610e2f82610dde565b610e398185610de9565b9350610e49818560208601610dfa565b610e5281610ba6565b840191505092915050565b600073ffffffffffffffffffffffffffffffffffffffff82169050919050565b6000610e8882610e5d565b9050919050565b610e9881610e7d565b82525050565b600060a082019050610eb36000830188610d87565b8181036020830152610ec58187610e24565b9050610ed46040830186610d87565b610ee16060830185610d87565b610eee6080830184610e8f565b9695505050505050565b610f0181610ce2565b82525050565b600082825260208201905092915050565b6000610f2382610dde565b610f2d8185610f07565b9350610f3d818560208601610dfa565b610f4681610ba6565b840191505092915050565b610f5a81610e7d565b82525050565b600060a083016000830151610f786000860182610ef8565b5060208301518482036020860152610f908282610f18565b9150506040830151610fa56040860182610ef8565b506060830151610fb86060860182610ef8565b506080830151610fcb6080860182610f51565b508091505092915050565b60006020820190508181036000830152610ff08184610f60565b905092915050565b7f4e487b7100000000000000000000000000000000000000000000000000000000600052601160045260246000fd5b600061103282610ce2565b91507fffffffffffffffffffffffffffffffffffffffffffffffffffffffffffffffff820361106457611063610ff8565b5b600182019050919050565b7f4e487b7100000000000000000000000000000000000000000000000000000000600052602260045260246000fd5b600060028204905060018216806110b657607f821691505b6020821081036110c9576110c861106f565b5b50919050565b60008190508160005260206000209050919050565b60006020601f8301049050919050565b600082821b905092915050565b6000600883026111317fffffffffffffffffffffffffffffffffffffffffffffffffffffffffffffffff826110f4565b61113b86836110f4565b95508019841693508086168417925050509392505050565b6000819050919050565b600061117861117361116e84610ce2565b611153565b610ce2565b9050919050565b6000819050919050565b6111928361115d565b6111a661119e8261117f565b848454611101565b825550505050565b600090565b6111bb6111ae565b6111c6818484611189565b505050565b5b818110156111ea576111df6000826111b3565b6001810190506111cc565b5050565b601f82111561122f57611200816110cf565b611209846110e4565b81016020851015611218578190505b61122c611224856110e4565b8301826111cb565b50505b505050565b600082821c905092915050565b600061125260001984600802611234565b1980831691505092915050565b600061126b8383611241565b9150826002028217905092915050565b61128482610dde565b67ffffffffffffffff81111561129d5761129c610bb7565b5b6112a7825461109e565b6112b28282856111ee565b600060209050601f8311600181146112e557600084156112d3578287015190505b6112dd858261125f565b865550611345565b601f1984166112f3866110cf565b60005b8281101561131b578489015182556001820191506020850194506020810190506112f6565b868310156113385784890151611334601f891682611241565b8355505b6001600288020188555050505b505050505050565b600081905092915050565b60008190508160005260206000209050919050565b6000815461137a8161109e565b611384818661134d565b9450600182166000811461139f57600181146113b4576113e7565b60ff19831686528115158202860193506113e7565b6113bd85611358565b60005b838110156113df578154818901526001820191506020810190506113c0565b838801955050505b50505092915050565b60006113fc828461136d565b915081905092915050565b600061141282610ce2565b915061141d83610ce2565b925082820390508181111561143557611434610ff8565b5b92915050565b600081546114488161109e565b6114528186610de9565b9450600182166000811461146d5760018114611483576114b6565b60ff1983168652811515602002860193506114b6565b61148c856110cf565b60005b838110156114ae5781548189015260018201915060208101905061148f565b808801955050505b50505092915050565b600060e0820190506114d4600083018a610d87565b6114e16020830189610d87565b81810360408301526114f3818861143b565b90506115026060830187610d87565b61150f6080830186610d87565b61151c60a0830185610e8f565b61152960c0830184610e8f565b9897505050505050505056fea26469706673582212205d4ba1357b07e5199e3c7e392f45a6b74907c1d95a835c0e66c392da1fdad04564736f6c63430008130033",
  "immutableReferences": {},
  "source": "// SPDX-License-Identifier: MIT\npragma solidity ^0.8.0;\n\ncontract OrderBook {\n    struct Order {\n        uint id;\n        string symbol;\n        uint quantity;\n        uint price;\n        address trader;\n    }\n\n    uint public orderCount = 0;\n    mapping(uint => Order) public buyOrders;\n    mapping(uint => Order) public sellOrders;\n\n    event BuyOrderPlaced(uint id, string symbol, uint quantity, uint price, address trader);\n    event SellOrderPlaced(uint id, string symbol, uint quantity, uint price, address trader);\n    event OrderMatched(uint buyOrderId, uint sellOrderId, string symbol, uint quantity, uint price, address buyer, address seller);\n\n    function placeBuyOrder(string memory symbol, uint quantity, uint price) public {\n        orderCount++;\n        buyOrders[orderCount] = Order(orderCount, symbol, quantity, price, msg.sender);\n        emit BuyOrderPlaced(orderCount, symbol, quantity, price, msg.sender);\n        matchOrders();\n    }\n\n    function placeSellOrder(string memory symbol, uint quantity, uint price) public {\n        orderCount++;\n        sellOrders[orderCount] = Order(orderCount, symbol, quantity, price, msg.sender);\n        emit SellOrderPlaced(orderCount, symbol, quantity, price, msg.sender);\n        matchOrders();\n    }\n\n    function matchOrders() internal {\n        for (uint i = 1; i <= orderCount; i++) {\n            if (buyOrders[i].quantity > 0) {\n                for (uint j = 1; j <= orderCount; j++) {\n                    if (sellOrders[j].quantity > 0) {\n                        if (keccak256(bytes(buyOrders[i].symbol)) == keccak256(bytes(sellOrders[j].symbol)) &&\n                            buyOrders[i].price >= sellOrders[j].price) {\n                            \n                            uint matchQuantity = buyOrders[i].quantity < sellOrders[j].quantity ? buyOrders[i].quantity : sellOrders[j].quantity;\n\n                            buyOrders[i].quantity -= matchQuantity;\n                            sellOrders[j].quantity -= matchQuantity;\n\n                            emit OrderMatched(buyOrders[i].id, sellOrders[j].id, buyOrders[i].symbol, matchQuantity, buyOrders[i].price, buyOrders[i].trader, sellOrders[j].trader);\n\n                            if (buyOrders[i].quantity == 0) {\n                                break;\n                            }\n                        }\n                    }\n                }\n            }\n        }\n    }\n\n    function getBuyOrder(uint id) public view returns (Order memory) {\n        return buyOrders[id];\n    }\n\n    function getSellOrder(uint id) public view returns (Order memory) {\n        return sellOrders[id];\n    }\n}\n",
  "sourcePath": "/Users/sanjit/Documents/Projects/block-trade/contracts/OrderBook.sol",
  "compiler": {
    "name": "solc",
    "version": "0.8.19+commit.7dd6d404.Emscripten.clang"
  },
  "schemaVersion": "3.4.16",
  "updatedAt": "2024-07-16T14:43:33.495Z",
  "networkType": "ethereum",
  "devdoc": {
    "kind": "dev",
    "methods": {},
    "version": 1
  },
  "userdoc": {
    "kind": "user",
    "methods": {},
    "version": 1
  }
}