{
  "contractName": "OrderBook",
  "abi": [
    {
      "anonymous": false,
      "inputs": [
        {
          "indexed": false,
          "internalType": "uint256",
          "name": "id",
          "type": "uint256"
        },
        {
          "indexed": false,
          "internalType": "string",
          "name": "symbol",
          "type": "string"
        },
        {
          "indexed": false,
          "internalType": "uint256",
          "name": "quantity",
          "type": "uint256"
        },
        {
          "indexed": false,
          "internalType": "uint256",
          "name": "price",
          "type": "uint256"
        },
        {
          "indexed": false,
          "internalType": "address",
          "name": "trader",
          "type": "address"
        }
      ],
      "name": "BuyOrderPlaced",
      "type": "event"
    },
    {
      "anonymous": false,
      "inputs": [
        {
          "indexed": false,
          "internalType": "uint256",
          "name": "id",
          "type": "uint256"
        },
        {
          "indexed": false,
          "internalType": "string",
          "name": "symbol",
          "type": "string"
        },
        {
          "indexed": false,
          "internalType": "uint256",
          "name": "quantity",
          "type": "uint256"
        },
        {
          "indexed": false,
          "internalType": "uint256",
          "name": "price",
          "type": "uint256"
        },
        {
          "indexed": false,
          "internalType": "address",
          "name": "trader",
          "type": "address"
        }
      ],
      "name": "SellOrderPlaced",
      "type": "event"
    },
    {
      "inputs": [
        {
          "internalType": "uint256",
          "name": "",
          "type": "uint256"
        }
      ],
      "name": "buyOrders",
      "outputs": [
        {
          "internalType": "uint256",
          "name": "id",
          "type": "uint256"
        },
        {
          "internalType": "string",
          "name": "symbol",
          "type": "string"
        },
        {
          "internalType": "uint256",
          "name": "quantity",
          "type": "uint256"
        },
        {
          "internalType": "uint256",
          "name": "price",
          "type": "uint256"
        },
        {
          "internalType": "address",
          "name": "trader",
          "type": "address"
        }
      ],
      "stateMutability": "view",
      "type": "function",
      "constant": true
    },
    {
      "inputs": [],
      "name": "orderCount",
      "outputs": [
        {
          "internalType": "uint256",
          "name": "",
          "type": "uint256"
        }
      ],
      "stateMutability": "view",
      "type": "function",
      "constant": true
    },
    {
      "inputs": [
        {
          "internalType": "uint256",
          "name": "",
          "type": "uint256"
        }
      ],
      "name": "sellOrders",
      "outputs": [
        {
          "internalType": "uint256",
          "name": "id",
          "type": "uint256"
        },
        {
          "internalType": "string",
          "name": "symbol",
          "type": "string"
        },
        {
          "internalType": "uint256",
          "name": "quantity",
          "type": "uint256"
        },
        {
          "internalType": "uint256",
          "name": "price",
          "type": "uint256"
        },
        {
          "internalType": "address",
          "name": "trader",
          "type": "address"
        }
      ],
      "stateMutability": "view",
      "type": "function",
      "constant": true
    },
    {
      "inputs": [
        {
          "internalType": "string",
          "name": "symbol",
          "type": "string"
        },
        {
          "internalType": "uint256",
          "name": "quantity",
          "type": "uint256"
        },
        {
          "internalType": "uint256",
          "name": "price",
          "type": "uint256"
        }
      ],
      "name": "placeBuyOrder",
      "outputs": [],
      "stateMutability": "nonpayable",
      "type": "function"
    },
    {
      "inputs": [
        {
          "internalType": "string",
          "name": "symbol",
          "type": "string"
        },
        {
          "internalType": "uint256",
          "name": "quantity",
          "type": "uint256"
        },
        {
          "internalType": "uint256",
          "name": "price",
          "type": "uint256"
        }
      ],
      "name": "placeSellOrder",
      "outputs": [],
      "stateMutability": "nonpayable",
      "type": "function"
    },
    {
      "inputs": [
        {
          "internalType": "uint256",
          "name": "id",
          "type": "uint256"
        }
      ],
      "name": "getBuyOrder",
      "outputs": [
        {
          "components": [
            {
              "internalType": "uint256",
              "name": "id",
              "type": "uint256"
            },
            {
              "internalType": "string",
              "name": "symbol",
              "type": "string"
            },
            {
              "internalType": "uint256",
              "name": "quantity",
              "type": "uint256"
            },
            {
              "internalType": "uint256",
              "name": "price",
              "type": "uint256"
            },
            {
              "internalType": "address",
              "name": "trader",
              "type": "address"
            }
          ],
          "internalType": "struct OrderBook.Order",
          "name": "",
          "type": "tuple"
        }
      ],
      "stateMutability": "view",
      "type": "function",
      "constant": true
    },
    {
      "inputs": [
        {
          "internalType": "uint256",
          "name": "id",
          "type": "uint256"
        }
      ],
      "name": "getSellOrder",
      "outputs": [
        {
          "components": [
            {
              "internalType": "uint256",
              "name": "id",
              "type": "uint256"
            },
            {
              "internalType": "string",
              "name": "symbol",
              "type": "string"
            },
            {
              "internalType": "uint256",
              "name": "quantity",
              "type": "uint256"
            },
            {
              "internalType": "uint256",
              "name": "price",
              "type": "uint256"
            },
            {
              "internalType": "address",
              "name": "trader",
              "type": "address"
            }
          ],
          "internalType": "struct OrderBook.Order",
          "name": "",
          "type": "tuple"
        }
      ],
      "stateMutability": "view",
      "type": "function",
      "constant": true
    }
  ],
  "bytecode": "0x60806040526000805534801561001457600080fd5b50611362806100246000396000f3fe608060405234801561001057600080fd5b506004361061007d5760003560e01c8063390ce0d31161005b578063390ce0d3146100f05780634a8393f314610120578063b1af1bda14610154578063f7c03b80146101845761007d565b8063225c3957146100825780632453ffa81461009e57806335cea288146100bc575b600080fd5b61009c60048036038101906100979190610b8d565b6101a0565b005b6100a6610398565b6040516100b39190610c0b565b60405180910390f35b6100d660048036038101906100d19190610c26565b61039e565b6040516100e7959493929190610d13565b60405180910390f35b61010a60048036038101906101059190610c26565b61047c565b6040516101179190610e4b565b60405180910390f35b61013a60048036038101906101359190610c26565b6105af565b60405161014b959493929190610d13565b60405180910390f35b61016e60048036038101906101699190610c26565b61068d565b60405161017b9190610e4b565b60405180910390f35b61019e60048036038101906101999190610b8d565b6107c0565b005b60008351116101e4576040517f08c379a00000000000000000000000000000000000000000000000000000000081526004016101db90610eb9565b60405180910390fd5b60008211610227576040517f08c379a000000000000000000000000000000000000000000000000000000000815260040161021e90610f4b565b60405180910390fd5b6000811161026a576040517f08c379a000000000000000000000000000000000000000000000000000000000815260040161026190610fb7565b60405180910390fd5b60008081548092919061027c90611006565b91905055506040518060a0016040528060005481526020018481526020018381526020018281526020013373ffffffffffffffffffffffffffffffffffffffff1681525060026000805481526020019081526020016000206000820151816000015560208201518160010190816102f3919061125a565b50604082015181600201556060820151816003015560808201518160040160006101000a81548173ffffffffffffffffffffffffffffffffffffffff021916908373ffffffffffffffffffffffffffffffffffffffff1602179055509050507f106648aafc85fd8243e4f2c8210b5b909227e26bbb3f7f1e77f40ababeebfce56000548484843360405161038b959493929190610d13565b60405180910390a1505050565b60005481565b60016020528060005260406000206000915090508060000154908060010180546103c79061107d565b80601f01602080910402602001604051908101604052809291908181526020018280546103f39061107d565b80156104405780601f1061041557610100808354040283529160200191610440565b820191906000526020600020905b81548152906001019060200180831161042357829003601f168201915b5050505050908060020154908060030154908060040160009054906101000a900473ffffffffffffffffffffffffffffffffffffffff16905085565b6104846109b8565b600260008381526020019081526020016000206040518060a0016040529081600082015481526020016001820180546104bc9061107d565b80601f01602080910402602001604051908101604052809291908181526020018280546104e89061107d565b80156105355780601f1061050a57610100808354040283529160200191610535565b820191906000526020600020905b81548152906001019060200180831161051857829003601f168201915b5050505050815260200160028201548152602001600382015481526020016004820160009054906101000a900473ffffffffffffffffffffffffffffffffffffffff1673ffffffffffffffffffffffffffffffffffffffff1673ffffffffffffffffffffffffffffffffffffffff16815250509050919050565b60026020528060005260406000206000915090508060000154908060010180546105d89061107d565b80601f01602080910402602001604051908101604052809291908181526020018280546106049061107d565b80156106515780601f1061062657610100808354040283529160200191610651565b820191906000526020600020905b81548152906001019060200180831161063457829003601f168201915b5050505050908060020154908060030154908060040160009054906101000a900473ffffffffffffffffffffffffffffffffffffffff16905085565b6106956109b8565b600160008381526020019081526020016000206040518060a0016040529081600082015481526020016001820180546106cd9061107d565b80601f01602080910402602001604051908101604052809291908181526020018280546106f99061107d565b80156107465780601f1061071b57610100808354040283529160200191610746565b820191906000526020600020905b81548152906001019060200180831161072957829003601f168201915b5050505050815260200160028201548152602001600382015481526020016004820160009054906101000a900473ffffffffffffffffffffffffffffffffffffffff1673ffffffffffffffffffffffffffffffffffffffff1673ffffffffffffffffffffffffffffffffffffffff16815250509050919050565b6000835111610804576040517f08c379a00000000000000000000000000000000000000000000000000000000081526004016107fb90610eb9565b60405180910390fd5b60008211610847576040517f08c379a000000000000000000000000000000000000000000000000000000000815260040161083e90610f4b565b60405180910390fd5b6000811161088a576040517f08c379a000000000000000000000000000000000000000000000000000000000815260040161088190610fb7565b60405180910390fd5b60008081548092919061089c90611006565b91905055506040518060a0016040528060005481526020018481526020018381526020018281526020013373ffffffffffffffffffffffffffffffffffffffff168152506001600080548152602001908152602001600020600082015181600001556020820151816001019081610913919061125a565b50604082015181600201556060820151816003015560808201518160040160006101000a81548173ffffffffffffffffffffffffffffffffffffffff021916908373ffffffffffffffffffffffffffffffffffffffff1602179055509050507f493af9d2cc12a46542ad5e4554795600a832fa070f796c7a736644682f613691600054848484336040516109ab959493929190610d13565b60405180910390a1505050565b6040518060a0016040528060008152602001606081526020016000815260200160008152602001600073ffffffffffffffffffffffffffffffffffffffff1681525090565b6000604051905090565b600080fd5b600080fd5b600080fd5b600080fd5b6000601f19601f8301169050919050565b7f4e487b7100000000000000000000000000000000000000000000000000000000600052604160045260246000fd5b610a6482610a1b565b810181811067ffffffffffffffff82111715610a8357610a82610a2c565b5b80604052505050565b6000610a966109fd565b9050610aa28282610a5b565b919050565b600067ffffffffffffffff821115610ac257610ac1610a2c565b5b610acb82610a1b565b9050602081019050919050565b82818337600083830152505050565b6000610afa610af584610aa7565b610a8c565b905082815260208101848484011115610b1657610b15610a16565b5b610b21848285610ad8565b509392505050565b600082601f830112610b3e57610b3d610a11565b5b8135610b4e848260208601610ae7565b91505092915050565b6000819050919050565b610b6a81610b57565b8114610b7557600080fd5b50565b600081359050610b8781610b61565b92915050565b600080600060608486031215610ba657610ba5610a07565b5b600084013567ffffffffffffffff811115610bc457610bc3610a0c565b5b610bd086828701610b29565b9350506020610be186828701610b78565b9250506040610bf286828701610b78565b9150509250925092565b610c0581610b57565b82525050565b6000602082019050610c206000830184610bfc565b92915050565b600060208284031215610c3c57610c3b610a07565b5b6000610c4a84828501610b78565b91505092915050565b600081519050919050565b600082825260208201905092915050565b60005b83811015610c8d578082015181840152602081019050610c72565b60008484015250505050565b6000610ca482610c53565b610cae8185610c5e565b9350610cbe818560208601610c6f565b610cc781610a1b565b840191505092915050565b600073ffffffffffffffffffffffffffffffffffffffff82169050919050565b6000610cfd82610cd2565b9050919050565b610d0d81610cf2565b82525050565b600060a082019050610d286000830188610bfc565b8181036020830152610d3a8187610c99565b9050610d496040830186610bfc565b610d566060830185610bfc565b610d636080830184610d04565b9695505050505050565b610d7681610b57565b82525050565b600082825260208201905092915050565b6000610d9882610c53565b610da28185610d7c565b9350610db2818560208601610c6f565b610dbb81610a1b565b840191505092915050565b610dcf81610cf2565b82525050565b600060a083016000830151610ded6000860182610d6d565b5060208301518482036020860152610e058282610d8d565b9150506040830151610e1a6040860182610d6d565b506060830151610e2d6060860182610d6d565b506080830151610e406080860182610dc6565b508091505092915050565b60006020820190508181036000830152610e658184610dd5565b905092915050565b7f53796d626f6c2069732072657175697265640000000000000000000000000000600082015250565b6000610ea3601283610c5e565b9150610eae82610e6d565b602082019050919050565b60006020820190508181036000830152610ed281610e96565b9050919050565b7f5175616e74697479206d7573742062652067726561746572207468616e207a6560008201527f726f000000000000000000000000000000000000000000000000000000000000602082015250565b6000610f35602283610c5e565b9150610f4082610ed9565b604082019050919050565b60006020820190508181036000830152610f6481610f28565b9050919050565b7f5072696365206d7573742062652067726561746572207468616e207a65726f00600082015250565b6000610fa1601f83610c5e565b9150610fac82610f6b565b602082019050919050565b60006020820190508181036000830152610fd081610f94565b9050919050565b7f4e487b7100000000000000000000000000000000000000000000000000000000600052601160045260246000fd5b600061101182610b57565b91507fffffffffffffffffffffffffffffffffffffffffffffffffffffffffffffffff820361104357611042610fd7565b5b600182019050919050565b7f4e487b7100000000000000000000000000000000000000000000000000000000600052602260045260246000fd5b6000600282049050600182168061109557607f821691505b6020821081036110a8576110a761104e565b5b50919050565b60008190508160005260206000209050919050565b60006020601f8301049050919050565b600082821b905092915050565b6000600883026111107fffffffffffffffffffffffffffffffffffffffffffffffffffffffffffffffff826110d3565b61111a86836110d3565b95508019841693508086168417925050509392505050565b6000819050919050565b600061115761115261114d84610b57565b611132565b610b57565b9050919050565b6000819050919050565b6111718361113c565b61118561117d8261115e565b8484546110e0565b825550505050565b600090565b61119a61118d565b6111a5818484611168565b505050565b5b818110156111c9576111be600082611192565b6001810190506111ab565b5050565b601f82111561120e576111df816110ae565b6111e8846110c3565b810160208510156111f7578190505b61120b611203856110c3565b8301826111aa565b50505b505050565b600082821c905092915050565b600061123160001984600802611213565b1980831691505092915050565b600061124a8383611220565b9150826002028217905092915050565b61126382610c53565b67ffffffffffffffff81111561127c5761127b610a2c565b5b611286825461107d565b6112918282856111cd565b600060209050601f8311600181146112c457600084156112b2578287015190505b6112bc858261123e565b865550611324565b601f1984166112d2866110ae565b60005b828110156112fa578489015182556001820191506020850194506020810190506112d5565b868310156113175784890151611313601f891682611220565b8355505b6001600288020188555050505b50505050505056fea2646970667358221220d1da14d6528ce4512a3e800305cc16baa2782da33100ec7711c902b0723a6dcb64736f6c63430008130033",
  "immutableReferences": {},
  "source": "// SPDX-License-Identifier: MIT\npragma solidity ^0.8.19;\n\ncontract OrderBook {\n    struct Order {\n        uint id;\n        string symbol;\n        uint quantity;\n        uint price;\n        address trader;\n    }\n\n    uint public orderCount = 0;\n    mapping(uint => Order) public buyOrders;\n    mapping(uint => Order) public sellOrders;\n\n    event BuyOrderPlaced(uint id, string symbol, uint quantity, uint price, address trader);\n    event SellOrderPlaced(uint id, string symbol, uint quantity, uint price, address trader);\n\n    function placeBuyOrder(string memory symbol, uint quantity, uint price) public {\n        require(bytes(symbol).length > 0, \"Symbol is required\");\n        require(quantity > 0, \"Quantity must be greater than zero\");\n        require(price > 0, \"Price must be greater than zero\");\n\n        orderCount++;\n        buyOrders[orderCount] = Order(orderCount, symbol, quantity, price, msg.sender);\n        emit BuyOrderPlaced(orderCount, symbol, quantity, price, msg.sender);\n    }\n\n    function placeSellOrder(string memory symbol, uint quantity, uint price) public {\n        require(bytes(symbol).length > 0, \"Symbol is required\");\n        require(quantity > 0, \"Quantity must be greater than zero\");\n        require(price > 0, \"Price must be greater than zero\");\n\n        orderCount++;\n        sellOrders[orderCount] = Order(orderCount, symbol, quantity, price, msg.sender);\n        emit SellOrderPlaced(orderCount, symbol, quantity, price, msg.sender);\n    }\n\n    function getBuyOrder(uint id) public view returns (Order memory) {\n        return buyOrders[id];\n    }\n\n    function getSellOrder(uint id) public view returns (Order memory) {\n        return sellOrders[id];\n    }\n}\n",
  "sourcePath": "/Users/sanjit/Documents/Projects/block-trade/contracts/OrderBook.sol",
  "compiler": {
    "name": "solc",
    "version": "0.8.19+commit.7dd6d404.Emscripten.clang"
  },
  "schemaVersion": "3.4.16",
  "updatedAt": "2024-07-16T03:30:06.079Z",
  "networkType": "ethereum",
  "devdoc": {
    "kind": "dev",
    "methods": {},
    "version": 1
  },
  "userdoc": {
    "kind": "user",
    "methods": {},
    "version": 1
  }
}