{
  "contractName": "OrderBook",
  "abi": [
    {
      "anonymous": false,
      "inputs": [
        {
          "indexed": false,
          "internalType": "uint256",
          "name": "id",
          "type": "uint256"
        },
        {
          "indexed": false,
          "internalType": "string",
          "name": "symbol",
          "type": "string"
        },
        {
          "indexed": false,
          "internalType": "uint256",
          "name": "quantity",
          "type": "uint256"
        },
        {
          "indexed": false,
          "internalType": "uint256",
          "name": "price",
          "type": "uint256"
        },
        {
          "indexed": false,
          "internalType": "address",
          "name": "trader",
          "type": "address"
        },
        {
          "indexed": false,
          "internalType": "string",
          "name": "user_id",
          "type": "string"
        },
        {
          "indexed": false,
          "internalType": "string",
          "name": "order_id",
          "type": "string"
        },
        {
          "indexed": false,
          "internalType": "enum OrderBook.OrderType",
          "name": "orderType",
          "type": "uint8"
        }
      ],
      "name": "BuyOrderPlaced",
      "type": "event"
    },
    {
      "anonymous": false,
      "inputs": [
        {
          "indexed": false,
          "internalType": "string",
          "name": "message",
          "type": "string"
        }
      ],
      "name": "Log",
      "type": "event"
    },
    {
      "anonymous": false,
      "inputs": [
        {
          "indexed": false,
          "internalType": "uint256",
          "name": "buyOrderId",
          "type": "uint256"
        },
        {
          "indexed": false,
          "internalType": "uint256",
          "name": "sellOrderId",
          "type": "uint256"
        },
        {
          "indexed": false,
          "internalType": "string",
          "name": "symbol",
          "type": "string"
        },
        {
          "indexed": false,
          "internalType": "uint256",
          "name": "quantity",
          "type": "uint256"
        },
        {
          "indexed": false,
          "internalType": "uint256",
          "name": "price",
          "type": "uint256"
        },
        {
          "indexed": false,
          "internalType": "address",
          "name": "buyer",
          "type": "address"
        },
        {
          "indexed": false,
          "internalType": "string",
          "name": "buyer_user_id",
          "type": "string"
        },
        {
          "indexed": false,
          "internalType": "string",
          "name": "buyer_order_id",
          "type": "string"
        },
        {
          "indexed": false,
          "internalType": "address",
          "name": "seller",
          "type": "address"
        },
        {
          "indexed": false,
          "internalType": "string",
          "name": "seller_user_id",
          "type": "string"
        },
        {
          "indexed": false,
          "internalType": "string",
          "name": "seller_order_id",
          "type": "string"
        }
      ],
      "name": "OrderMatched",
      "type": "event"
    },
    {
      "anonymous": false,
      "inputs": [
        {
          "indexed": false,
          "internalType": "uint256",
          "name": "id",
          "type": "uint256"
        },
        {
          "indexed": false,
          "internalType": "string",
          "name": "symbol",
          "type": "string"
        },
        {
          "indexed": false,
          "internalType": "uint256",
          "name": "quantity",
          "type": "uint256"
        },
        {
          "indexed": false,
          "internalType": "uint256",
          "name": "price",
          "type": "uint256"
        },
        {
          "indexed": false,
          "internalType": "address",
          "name": "trader",
          "type": "address"
        },
        {
          "indexed": false,
          "internalType": "string",
          "name": "user_id",
          "type": "string"
        },
        {
          "indexed": false,
          "internalType": "string",
          "name": "order_id",
          "type": "string"
        },
        {
          "indexed": false,
          "internalType": "enum OrderBook.OrderType",
          "name": "orderType",
          "type": "uint8"
        }
      ],
      "name": "SellOrderPlaced",
      "type": "event"
    },
    {
      "inputs": [
        {
          "internalType": "uint256",
          "name": "",
          "type": "uint256"
        }
      ],
      "name": "buyOrders",
      "outputs": [
        {
          "internalType": "uint256",
          "name": "id",
          "type": "uint256"
        },
        {
          "internalType": "string",
          "name": "symbol",
          "type": "string"
        },
        {
          "internalType": "uint256",
          "name": "quantity",
          "type": "uint256"
        },
        {
          "internalType": "uint256",
          "name": "price",
          "type": "uint256"
        },
        {
          "internalType": "address",
          "name": "trader",
          "type": "address"
        },
        {
          "internalType": "string",
          "name": "user_id",
          "type": "string"
        },
        {
          "internalType": "string",
          "name": "order_id",
          "type": "string"
        },
        {
          "internalType": "enum OrderBook.OrderType",
          "name": "orderType",
          "type": "uint8"
        }
      ],
      "stateMutability": "view",
      "type": "function",
      "constant": true
    },
    {
      "inputs": [],
      "name": "orderCount",
      "outputs": [
        {
          "internalType": "uint256",
          "name": "",
          "type": "uint256"
        }
      ],
      "stateMutability": "view",
      "type": "function",
      "constant": true
    },
    {
      "inputs": [
        {
          "internalType": "uint256",
          "name": "",
          "type": "uint256"
        }
      ],
      "name": "sellOrders",
      "outputs": [
        {
          "internalType": "uint256",
          "name": "id",
          "type": "uint256"
        },
        {
          "internalType": "string",
          "name": "symbol",
          "type": "string"
        },
        {
          "internalType": "uint256",
          "name": "quantity",
          "type": "uint256"
        },
        {
          "internalType": "uint256",
          "name": "price",
          "type": "uint256"
        },
        {
          "internalType": "address",
          "name": "trader",
          "type": "address"
        },
        {
          "internalType": "string",
          "name": "user_id",
          "type": "string"
        },
        {
          "internalType": "string",
          "name": "order_id",
          "type": "string"
        },
        {
          "internalType": "enum OrderBook.OrderType",
          "name": "orderType",
          "type": "uint8"
        }
      ],
      "stateMutability": "view",
      "type": "function",
      "constant": true
    },
    {
      "inputs": [
        {
          "internalType": "string",
          "name": "symbol",
          "type": "string"
        },
        {
          "internalType": "uint256",
          "name": "quantity",
          "type": "uint256"
        },
        {
          "internalType": "uint256",
          "name": "price",
          "type": "uint256"
        },
        {
          "internalType": "string",
          "name": "user_id",
          "type": "string"
        },
        {
          "internalType": "string",
          "name": "order_id",
          "type": "string"
        },
        {
          "internalType": "enum OrderBook.OrderType",
          "name": "orderType",
          "type": "uint8"
        }
      ],
      "name": "placeBuyOrder",
      "outputs": [],
      "stateMutability": "nonpayable",
      "type": "function"
    },
    {
      "inputs": [
        {
          "internalType": "string",
          "name": "symbol",
          "type": "string"
        },
        {
          "internalType": "uint256",
          "name": "quantity",
          "type": "uint256"
        },
        {
          "internalType": "uint256",
          "name": "price",
          "type": "uint256"
        },
        {
          "internalType": "string",
          "name": "user_id",
          "type": "string"
        },
        {
          "internalType": "string",
          "name": "order_id",
          "type": "string"
        },
        {
          "internalType": "enum OrderBook.OrderType",
          "name": "orderType",
          "type": "uint8"
        }
      ],
      "name": "placeSellOrder",
      "outputs": [],
      "stateMutability": "nonpayable",
      "type": "function"
    },
    {
      "inputs": [
        {
          "internalType": "uint256",
          "name": "id",
          "type": "uint256"
        }
      ],
      "name": "getBuyOrder",
      "outputs": [
        {
          "components": [
            {
              "internalType": "uint256",
              "name": "id",
              "type": "uint256"
            },
            {
              "internalType": "string",
              "name": "symbol",
              "type": "string"
            },
            {
              "internalType": "uint256",
              "name": "quantity",
              "type": "uint256"
            },
            {
              "internalType": "uint256",
              "name": "price",
              "type": "uint256"
            },
            {
              "internalType": "address",
              "name": "trader",
              "type": "address"
            },
            {
              "internalType": "string",
              "name": "user_id",
              "type": "string"
            },
            {
              "internalType": "string",
              "name": "order_id",
              "type": "string"
            },
            {
              "internalType": "enum OrderBook.OrderType",
              "name": "orderType",
              "type": "uint8"
            }
          ],
          "internalType": "struct OrderBook.Order",
          "name": "",
          "type": "tuple"
        }
      ],
      "stateMutability": "view",
      "type": "function",
      "constant": true
    },
    {
      "inputs": [
        {
          "internalType": "uint256",
          "name": "id",
          "type": "uint256"
        }
      ],
      "name": "getSellOrder",
      "outputs": [
        {
          "components": [
            {
              "internalType": "uint256",
              "name": "id",
              "type": "uint256"
            },
            {
              "internalType": "string",
              "name": "symbol",
              "type": "string"
            },
            {
              "internalType": "uint256",
              "name": "quantity",
              "type": "uint256"
            },
            {
              "internalType": "uint256",
              "name": "price",
              "type": "uint256"
            },
            {
              "internalType": "address",
              "name": "trader",
              "type": "address"
            },
            {
              "internalType": "string",
              "name": "user_id",
              "type": "string"
            },
            {
              "internalType": "string",
              "name": "order_id",
              "type": "string"
            },
            {
              "internalType": "enum OrderBook.OrderType",
              "name": "orderType",
              "type": "uint8"
            }
          ],
          "internalType": "struct OrderBook.Order",
          "name": "",
          "type": "tuple"
        }
      ],
      "stateMutability": "view",
      "type": "function",
      "constant": true
    }
  ],
  "bytecode": "0x60806040526000805534801561001457600080fd5b506122c3806100246000396000f3fe608060405234801561001057600080fd5b506004361061007d5760003560e01c8063390ce0d31161005b578063390ce0d3146100f35780634a8393f314610123578063b1af1bda1461015a578063cf2611ce1461018a5761007d565b806306d1d489146100825780632453ffa81461009e57806335cea288146100bc575b600080fd5b61009c600480360381019061009791906116ef565b6101a6565b005b6100a661039b565b6040516100b391906117df565b60405180910390f35b6100d660048036038101906100d191906117fa565b6103a1565b6040516100ea98979695949392919061195e565b60405180910390f35b61010d600480360381019061010891906117fa565b6105ae565b60405161011a9190611b26565b60405180910390f35b61013d600480360381019061013891906117fa565b610841565b60405161015198979695949392919061195e565b60405180910390f35b610174600480360381019061016f91906117fa565b610a4e565b6040516101819190611b26565b60405180910390f35b6101a4600480360381019061019f91906116ef565b610ce1565b005b7fcf34ef537ac33ee1ac626ca1587a0a7e8e51561e5514f8cb36afa1c5102b3bab6040516101d390611b94565b60405180910390a16000808154809291906101ed90611be3565b919050555060405180610100016040528060005481526020018781526020018681526020018581526020013373ffffffffffffffffffffffffffffffffffffffff168152602001848152602001838152602001826002811115610253576102526118e7565b5b81525060026000805481526020019081526020016000206000820151816000015560208201518160010190816102899190611e37565b50604082015181600201556060820151816003015560808201518160040160006101000a81548173ffffffffffffffffffffffffffffffffffffffff021916908373ffffffffffffffffffffffffffffffffffffffff16021790555060a08201518160050190816102fa9190611e37565b5060c08201518160060190816103109190611e37565b5060e08201518160070160006101000a81548160ff0219169083600281111561033c5761033b6118e7565b5b02179055509050507fe12b399e9ab253e23f3677458d614658b4662d54b44a2339b97c7e32cb8edafb6000548787873388888860405161038398979695949392919061195e565b60405180910390a1610393610ed6565b505050505050565b60005481565b60016020528060005260406000206000915090508060000154908060010180546103ca90611c5a565b80601f01602080910402602001604051908101604052809291908181526020018280546103f690611c5a565b80156104435780601f1061041857610100808354040283529160200191610443565b820191906000526020600020905b81548152906001019060200180831161042657829003601f168201915b5050505050908060020154908060030154908060040160009054906101000a900473ffffffffffffffffffffffffffffffffffffffff169080600501805461048a90611c5a565b80601f01602080910402602001604051908101604052809291908181526020018280546104b690611c5a565b80156105035780601f106104d857610100808354040283529160200191610503565b820191906000526020600020905b8154815290600101906020018083116104e657829003601f168201915b50505050509080600601805461051890611c5a565b80601f016020809104026020016040519081016040528092919081815260200182805461054490611c5a565b80156105915780601f1061056657610100808354040283529160200191610591565b820191906000526020600020905b81548152906001019060200180831161057457829003601f168201915b5050505050908060070160009054906101000a900460ff16905088565b6105b66114cd565b6002600083815260200190815260200160002060405180610100016040529081600082015481526020016001820180546105ef90611c5a565b80601f016020809104026020016040519081016040528092919081815260200182805461061b90611c5a565b80156106685780601f1061063d57610100808354040283529160200191610668565b820191906000526020600020905b81548152906001019060200180831161064b57829003601f168201915b5050505050815260200160028201548152602001600382015481526020016004820160009054906101000a900473ffffffffffffffffffffffffffffffffffffffff1673ffffffffffffffffffffffffffffffffffffffff1673ffffffffffffffffffffffffffffffffffffffff1681526020016005820180546106eb90611c5a565b80601f016020809104026020016040519081016040528092919081815260200182805461071790611c5a565b80156107645780601f1061073957610100808354040283529160200191610764565b820191906000526020600020905b81548152906001019060200180831161074757829003601f168201915b5050505050815260200160068201805461077d90611c5a565b80601f01602080910402602001604051908101604052809291908181526020018280546107a990611c5a565b80156107f65780601f106107cb576101008083540402835291602001916107f6565b820191906000526020600020905b8154815290600101906020018083116107d957829003601f168201915b505050505081526020016007820160009054906101000a900460ff166002811115610824576108236118e7565b5b6002811115610836576108356118e7565b5b815250509050919050565b600260205280600052604060002060009150905080600001549080600101805461086a90611c5a565b80601f016020809104026020016040519081016040528092919081815260200182805461089690611c5a565b80156108e35780601f106108b8576101008083540402835291602001916108e3565b820191906000526020600020905b8154815290600101906020018083116108c657829003601f168201915b5050505050908060020154908060030154908060040160009054906101000a900473ffffffffffffffffffffffffffffffffffffffff169080600501805461092a90611c5a565b80601f016020809104026020016040519081016040528092919081815260200182805461095690611c5a565b80156109a35780601f10610978576101008083540402835291602001916109a3565b820191906000526020600020905b81548152906001019060200180831161098657829003601f168201915b5050505050908060060180546109b890611c5a565b80601f01602080910402602001604051908101604052809291908181526020018280546109e490611c5a565b8015610a315780601f10610a0657610100808354040283529160200191610a31565b820191906000526020600020905b815481529060010190602001808311610a1457829003601f168201915b5050505050908060070160009054906101000a900460ff16905088565b610a566114cd565b600160008381526020019081526020016000206040518061010001604052908160008201548152602001600182018054610a8f90611c5a565b80601f0160208091040260200160405190810160405280929190818152602001828054610abb90611c5a565b8015610b085780601f10610add57610100808354040283529160200191610b08565b820191906000526020600020905b815481529060010190602001808311610aeb57829003601f168201915b5050505050815260200160028201548152602001600382015481526020016004820160009054906101000a900473ffffffffffffffffffffffffffffffffffffffff1673ffffffffffffffffffffffffffffffffffffffff1673ffffffffffffffffffffffffffffffffffffffff168152602001600582018054610b8b90611c5a565b80601f0160208091040260200160405190810160405280929190818152602001828054610bb790611c5a565b8015610c045780601f10610bd957610100808354040283529160200191610c04565b820191906000526020600020905b815481529060010190602001808311610be757829003601f168201915b50505050508152602001600682018054610c1d90611c5a565b80601f0160208091040260200160405190810160405280929190818152602001828054610c4990611c5a565b8015610c965780601f10610c6b57610100808354040283529160200191610c96565b820191906000526020600020905b815481529060010190602001808311610c7957829003601f168201915b505050505081526020016007820160009054906101000a900460ff166002811115610cc457610cc36118e7565b5b6002811115610cd657610cd56118e7565b5b815250509050919050565b7fcf34ef537ac33ee1ac626ca1587a0a7e8e51561e5514f8cb36afa1c5102b3bab604051610d0e90611f55565b60405180910390a1600080815480929190610d2890611be3565b919050555060405180610100016040528060005481526020018781526020018681526020018581526020013373ffffffffffffffffffffffffffffffffffffffff168152602001848152602001838152602001826002811115610d8e57610d8d6118e7565b5b8152506001600080548152602001908152602001600020600082015181600001556020820151816001019081610dc49190611e37565b50604082015181600201556060820151816003015560808201518160040160006101000a81548173ffffffffffffffffffffffffffffffffffffffff021916908373ffffffffffffffffffffffffffffffffffffffff16021790555060a0820151816005019081610e359190611e37565b5060c0820151816006019081610e4b9190611e37565b5060e08201518160070160006101000a81548160ff02191690836002811115610e7757610e766118e7565b5b02179055509050507f863caeda7e5a7b8f5bd6f3f2563be852fa1c3c8d54be6e833d8050631ba53f0460005487878733888888604051610ebe98979695949392919061195e565b60405180910390a1610ece610ed6565b505050505050565b7fcf34ef537ac33ee1ac626ca1587a0a7e8e51561e5514f8cb36afa1c5102b3bab604051610f0390611fc1565b60405180910390a16000600190505b60005481116114ca576000600160008381526020019081526020016000206002015411156114b7576000600190505b60005481116114b5576000600260008381526020019081526020016000206002015411156114a25760026000828152602001908152602001600020600101604051610f8c9190612084565b604051809103902060016000848152602001908152602001600020600101604051610fb79190612084565b6040518091039020036114a15760016002811115610fd857610fd76118e7565b5b6001600084815260200190815260200160002060070160009054906101000a900460ff16600281111561100e5761100d6118e7565b5b1480611061575060016002811115611029576110286118e7565b5b6002600083815260200190815260200160002060070160009054906101000a900460ff16600281111561105f5761105e6118e7565b5b145b8061113e57506000600281111561107b5761107a6118e7565b5b6001600084815260200190815260200160002060070160009054906101000a900460ff1660028111156110b1576110b06118e7565b5b1480156111055750600060028111156110cd576110cc6118e7565b5b6002600083815260200190815260200160002060070160009054906101000a900460ff166002811115611103576111026118e7565b5b145b801561113d57506002600082815260200190815260200160002060030154600160008481526020019081526020016000206003015410155b5b806112195750600280811115611157576111566118e7565b5b6001600084815260200190815260200160002060070160009054906101000a900460ff16600281111561118d5761118c6118e7565b5b1480156111e057506002808111156111a8576111a76118e7565b5b6002600083815260200190815260200160002060070160009054906101000a900460ff1660028111156111de576111dd6118e7565b5b145b801561121857506002600082815260200190815260200160002060030154600160008481526020019081526020016000206003015411155b5b156114a0576000600260008381526020019081526020016000206002015460016000858152602001908152602001600020600201541061126f576002600083815260200190815260200160002060020154611287565b60016000848152602001908152602001600020600201545b9050806001600085815260200190815260200160002060020160008282546112af919061209b565b92505081905550806002600084815260200190815260200160002060020160008282546112dc919061209b565b925050819055507f67bbd05c013647253572430825cb55da7f58e4bbc5963d893568410bc41ef1696001600085815260200190815260200160002060000154600260008581526020019081526020016000206000015460016000878152602001908152602001600020600101846001600089815260200190815260200160002060030154600160008a815260200190815260200160002060040160009054906101000a900473ffffffffffffffffffffffffffffffffffffffff16600160008b8152602001908152602001600020600501600160008c8152602001908152602001600020600601600260008c815260200190815260200160002060040160009054906101000a900473ffffffffffffffffffffffffffffffffffffffff16600260008d8152602001908152602001600020600501600260008e815260200190815260200160002060060160405161143d9b9a99989796959493929190612153565b60405180910390a17fcf34ef537ac33ee1ac626ca1587a0a7e8e51561e5514f8cb36afa1c5102b3bab6040516114729061226d565b60405180910390a1600060016000858152602001908152602001600020600201540361149e57506114b5565b505b5b5b80806114ad90611be3565b915050610f41565b505b80806114c290611be3565b915050610f12565b50565b60405180610100016040528060008152602001606081526020016000815260200160008152602001600073ffffffffffffffffffffffffffffffffffffffff168152602001606081526020016060815260200160006002811115611534576115336118e7565b5b81525090565b6000604051905090565b600080fd5b600080fd5b600080fd5b600080fd5b6000601f19601f8301169050919050565b7f4e487b7100000000000000000000000000000000000000000000000000000000600052604160045260246000fd5b6115a182611558565b810181811067ffffffffffffffff821117156115c0576115bf611569565b5b80604052505050565b60006115d361153a565b90506115df8282611598565b919050565b600067ffffffffffffffff8211156115ff576115fe611569565b5b61160882611558565b9050602081019050919050565b82818337600083830152505050565b6000611637611632846115e4565b6115c9565b90508281526020810184848401111561165357611652611553565b5b61165e848285611615565b509392505050565b600082601f83011261167b5761167a61154e565b5b813561168b848260208601611624565b91505092915050565b6000819050919050565b6116a781611694565b81146116b257600080fd5b50565b6000813590506116c48161169e565b92915050565b600381106116d757600080fd5b50565b6000813590506116e9816116ca565b92915050565b60008060008060008060c0878903121561170c5761170b611544565b5b600087013567ffffffffffffffff81111561172a57611729611549565b5b61173689828a01611666565b965050602061174789828a016116b5565b955050604061175889828a016116b5565b945050606087013567ffffffffffffffff81111561177957611778611549565b5b61178589828a01611666565b935050608087013567ffffffffffffffff8111156117a6576117a5611549565b5b6117b289828a01611666565b92505060a06117c389828a016116da565b9150509295509295509295565b6117d981611694565b82525050565b60006020820190506117f460008301846117d0565b92915050565b6000602082840312156118105761180f611544565b5b600061181e848285016116b5565b91505092915050565b600081519050919050565b600082825260208201905092915050565b60005b83811015611861578082015181840152602081019050611846565b60008484015250505050565b600061187882611827565b6118828185611832565b9350611892818560208601611843565b61189b81611558565b840191505092915050565b600073ffffffffffffffffffffffffffffffffffffffff82169050919050565b60006118d1826118a6565b9050919050565b6118e1816118c6565b82525050565b7f4e487b7100000000000000000000000000000000000000000000000000000000600052602160045260246000fd5b60038110611927576119266118e7565b5b50565b600081905061193882611916565b919050565b60006119488261192a565b9050919050565b6119588161193d565b82525050565b600061010082019050611974600083018b6117d0565b8181036020830152611986818a61186d565b905061199560408301896117d0565b6119a260608301886117d0565b6119af60808301876118d8565b81810360a08301526119c1818661186d565b905081810360c08301526119d5818561186d565b90506119e460e083018461194f565b9998505050505050505050565b6119fa81611694565b82525050565b600082825260208201905092915050565b6000611a1c82611827565b611a268185611a00565b9350611a36818560208601611843565b611a3f81611558565b840191505092915050565b611a53816118c6565b82525050565b611a628161193d565b82525050565b600061010083016000830151611a8160008601826119f1565b5060208301518482036020860152611a998282611a11565b9150506040830151611aae60408601826119f1565b506060830151611ac160608601826119f1565b506080830151611ad46080860182611a4a565b5060a083015184820360a0860152611aec8282611a11565b91505060c083015184820360c0860152611b068282611a11565b91505060e0830151611b1b60e0860182611a59565b508091505092915050565b60006020820190508181036000830152611b408184611a68565b905092915050565b7f506c6163696e672053656c6c204f726465720000000000000000000000000000600082015250565b6000611b7e601283611832565b9150611b8982611b48565b602082019050919050565b60006020820190508181036000830152611bad81611b71565b9050919050565b7f4e487b7100000000000000000000000000000000000000000000000000000000600052601160045260246000fd5b6000611bee82611694565b91507fffffffffffffffffffffffffffffffffffffffffffffffffffffffffffffffff8203611c2057611c1f611bb4565b5b600182019050919050565b7f4e487b7100000000000000000000000000000000000000000000000000000000600052602260045260246000fd5b60006002820490506001821680611c7257607f821691505b602082108103611c8557611c84611c2b565b5b50919050565b60008190508160005260206000209050919050565b60006020601f8301049050919050565b600082821b905092915050565b600060088302611ced7fffffffffffffffffffffffffffffffffffffffffffffffffffffffffffffffff82611cb0565b611cf78683611cb0565b95508019841693508086168417925050509392505050565b6000819050919050565b6000611d34611d2f611d2a84611694565b611d0f565b611694565b9050919050565b6000819050919050565b611d4e83611d19565b611d62611d5a82611d3b565b848454611cbd565b825550505050565b600090565b611d77611d6a565b611d82818484611d45565b505050565b5b81811015611da657611d9b600082611d6f565b600181019050611d88565b5050565b601f821115611deb57611dbc81611c8b565b611dc584611ca0565b81016020851015611dd4578190505b611de8611de085611ca0565b830182611d87565b50505b505050565b600082821c905092915050565b6000611e0e60001984600802611df0565b1980831691505092915050565b6000611e278383611dfd565b9150826002028217905092915050565b611e4082611827565b67ffffffffffffffff811115611e5957611e58611569565b5b611e638254611c5a565b611e6e828285611daa565b600060209050601f831160018114611ea15760008415611e8f578287015190505b611e998582611e1b565b865550611f01565b601f198416611eaf86611c8b565b60005b82811015611ed757848901518255600182019150602085019450602081019050611eb2565b86831015611ef45784890151611ef0601f891682611dfd565b8355505b6001600288020188555050505b505050505050565b7f506c6163696e6720427579204f72646572000000000000000000000000000000600082015250565b6000611f3f601183611832565b9150611f4a82611f09565b602082019050919050565b60006020820190508181036000830152611f6e81611f32565b9050919050565b7f4d61746368696e67204f72646572730000000000000000000000000000000000600082015250565b6000611fab600f83611832565b9150611fb682611f75565b602082019050919050565b60006020820190508181036000830152611fda81611f9e565b9050919050565b600081905092915050565b60008190508160005260206000209050919050565b6000815461200e81611c5a565b6120188186611fe1565b9450600182166000811461203357600181146120485761207b565b60ff198316865281151582028601935061207b565b61205185611fec565b60005b8381101561207357815481890152600182019150602081019050612054565b838801955050505b50505092915050565b60006120908284612001565b915081905092915050565b60006120a682611694565b91506120b183611694565b92508282039050818111156120c9576120c8611bb4565b5b92915050565b600081546120dc81611c5a565b6120e68186611832565b9450600182166000811461210157600181146121175761214a565b60ff19831686528115156020028601935061214a565b61212085611c8b565b60005b8381101561214257815481890152600182019150602081019050612123565b808801955050505b50505092915050565b600061016082019050612169600083018e6117d0565b612176602083018d6117d0565b8181036040830152612188818c6120cf565b9050612197606083018b6117d0565b6121a4608083018a6117d0565b6121b160a08301896118d8565b81810360c08301526121c381886120cf565b905081810360e08301526121d781876120cf565b90506121e76101008301866118d8565b8181036101208301526121fa81856120cf565b905081810361014083015261220f81846120cf565b90509c9b505050505050505050505050565b7f4f72646572204d61746368656400000000000000000000000000000000000000600082015250565b6000612257600d83611832565b915061226282612221565b602082019050919050565b600060208201905081810360008301526122868161224a565b905091905056fea26469706673582212206527079ead9c3074e82e48f0de1c2274fdbf9338dcbc6768ca424c16b8ba5d5c64736f6c63430008130033",
  "immutableReferences": {},
  "source": "// SPDX-License-Identifier: MIT\npragma solidity ^0.8.0;\n\ncontract OrderBook {\n    enum OrderType { LIMIT, MARKET, STOP }\n\n    struct Order {\n        uint id;\n        string symbol;\n        uint quantity;\n        uint price;\n        address trader;\n        string user_id;\n        string order_id;\n        OrderType orderType;\n    }\n\n    uint public orderCount = 0;\n    mapping(uint => Order) public buyOrders;\n    mapping(uint => Order) public sellOrders;\n\n    event BuyOrderPlaced(uint id, string symbol, uint quantity, uint price, address trader, string user_id, string order_id, OrderType orderType);\n    event SellOrderPlaced(uint id, string symbol, uint quantity, uint price, address trader, string user_id, string order_id, OrderType orderType);\n    event OrderMatched(uint buyOrderId, uint sellOrderId, string symbol, uint quantity, uint price, address buyer, string buyer_user_id, string buyer_order_id, address seller, string seller_user_id, string seller_order_id);\n    event Log(string message);\n\n    function placeBuyOrder(string memory symbol, uint quantity, uint price, string memory user_id, string memory order_id, OrderType orderType) public {\n        emit Log(\"Placing Buy Order\");\n\n        orderCount++;\n        buyOrders[orderCount] = Order(orderCount, symbol, quantity, price, msg.sender, user_id, order_id, orderType);\n        emit BuyOrderPlaced(orderCount, symbol, quantity, price, msg.sender, user_id, order_id, orderType);\n        matchOrders();\n    }\n\n    function placeSellOrder(string memory symbol, uint quantity, uint price, string memory user_id, string memory order_id, OrderType orderType) public {\n        emit Log(\"Placing Sell Order\");\n\n        orderCount++;\n        sellOrders[orderCount] = Order(orderCount, symbol, quantity, price, msg.sender, user_id, order_id, orderType);\n        emit SellOrderPlaced(orderCount, symbol, quantity, price, msg.sender, user_id, order_id, orderType);\n        matchOrders();\n    }\n\n    function matchOrders() internal {\n        emit Log(\"Matching Orders\");\n\n        for (uint i = 1; i <= orderCount; i++) {\n            if (buyOrders[i].quantity > 0) {\n                for (uint j = 1; j <= orderCount; j++) {\n                    if (sellOrders[j].quantity > 0) {\n                        if (keccak256(bytes(buyOrders[i].symbol)) == keccak256(bytes(sellOrders[j].symbol))) {\n                            if (buyOrders[i].orderType == OrderType.MARKET || sellOrders[j].orderType == OrderType.MARKET ||\n                                (buyOrders[i].orderType == OrderType.LIMIT && sellOrders[j].orderType == OrderType.LIMIT && buyOrders[i].price >= sellOrders[j].price) ||\n                                (buyOrders[i].orderType == OrderType.STOP && sellOrders[j].orderType == OrderType.STOP && buyOrders[i].price <= sellOrders[j].price)) {\n                                \n                                uint matchQuantity = buyOrders[i].quantity < sellOrders[j].quantity ? buyOrders[i].quantity : sellOrders[j].quantity;\n\n                                buyOrders[i].quantity -= matchQuantity;\n                                sellOrders[j].quantity -= matchQuantity;\n\n                                emit OrderMatched(\n                                    buyOrders[i].id, sellOrders[j].id, buyOrders[i].symbol, matchQuantity, buyOrders[i].price,\n                                    buyOrders[i].trader, buyOrders[i].user_id, buyOrders[i].order_id,\n                                    sellOrders[j].trader, sellOrders[j].user_id, sellOrders[j].order_id\n                                );\n\n                                emit Log(\"Order Matched\");\n\n                                if (buyOrders[i].quantity == 0) {\n                                    break;\n                                }\n                            }\n                        }\n                    }\n                }\n            }\n        }\n    }\n\n    function getBuyOrder(uint id) public view returns (Order memory) {\n        return buyOrders[id];\n    }\n\n    function getSellOrder(uint id) public view returns (Order memory) {\n        return sellOrders[id];\n    }\n}",
  "sourcePath": "/Users/sanjit/Documents/Projects/block-trade/contracts/OrderBook.sol",
  "compiler": {
    "name": "solc",
    "version": "0.8.19+commit.7dd6d404.Emscripten.clang"
  },
  "schemaVersion": "3.4.16",
  "updatedAt": "2024-07-24T00:42:40.160Z",
  "networkType": "ethereum",
  "devdoc": {
    "kind": "dev",
    "methods": {},
    "version": 1
  },
  "userdoc": {
    "kind": "user",
    "methods": {},
    "version": 1
  }
}