{
  "contractName": "OrderBook",
  "abi": [
    {
      "anonymous": false,
      "inputs": [
        {
          "indexed": false,
          "internalType": "uint256",
          "name": "id",
          "type": "uint256"
        },
        {
          "indexed": false,
          "internalType": "string",
          "name": "symbol",
          "type": "string"
        },
        {
          "indexed": false,
          "internalType": "uint256",
          "name": "quantity",
          "type": "uint256"
        },
        {
          "indexed": false,
          "internalType": "uint256",
          "name": "price",
          "type": "uint256"
        },
        {
          "indexed": false,
          "internalType": "address",
          "name": "trader",
          "type": "address"
        },
        {
          "indexed": false,
          "internalType": "string",
          "name": "user_id",
          "type": "string"
        },
        {
          "indexed": false,
          "internalType": "string",
          "name": "order_id",
          "type": "string"
        }
      ],
      "name": "BuyOrderPlaced",
      "type": "event"
    },
    {
      "anonymous": false,
      "inputs": [
        {
          "indexed": false,
          "internalType": "uint256",
          "name": "buyOrderId",
          "type": "uint256"
        },
        {
          "indexed": false,
          "internalType": "uint256",
          "name": "sellOrderId",
          "type": "uint256"
        },
        {
          "indexed": false,
          "internalType": "string",
          "name": "symbol",
          "type": "string"
        },
        {
          "indexed": false,
          "internalType": "uint256",
          "name": "quantity",
          "type": "uint256"
        },
        {
          "indexed": false,
          "internalType": "uint256",
          "name": "price",
          "type": "uint256"
        },
        {
          "indexed": false,
          "internalType": "address",
          "name": "buyer",
          "type": "address"
        },
        {
          "indexed": false,
          "internalType": "string",
          "name": "buyer_user_id",
          "type": "string"
        },
        {
          "indexed": false,
          "internalType": "string",
          "name": "buyer_order_id",
          "type": "string"
        },
        {
          "indexed": false,
          "internalType": "address",
          "name": "seller",
          "type": "address"
        },
        {
          "indexed": false,
          "internalType": "string",
          "name": "seller_user_id",
          "type": "string"
        },
        {
          "indexed": false,
          "internalType": "string",
          "name": "seller_order_id",
          "type": "string"
        }
      ],
      "name": "OrderMatched",
      "type": "event"
    },
    {
      "anonymous": false,
      "inputs": [
        {
          "indexed": false,
          "internalType": "uint256",
          "name": "id",
          "type": "uint256"
        },
        {
          "indexed": false,
          "internalType": "string",
          "name": "symbol",
          "type": "string"
        },
        {
          "indexed": false,
          "internalType": "uint256",
          "name": "quantity",
          "type": "uint256"
        },
        {
          "indexed": false,
          "internalType": "uint256",
          "name": "price",
          "type": "uint256"
        },
        {
          "indexed": false,
          "internalType": "address",
          "name": "trader",
          "type": "address"
        },
        {
          "indexed": false,
          "internalType": "string",
          "name": "user_id",
          "type": "string"
        },
        {
          "indexed": false,
          "internalType": "string",
          "name": "order_id",
          "type": "string"
        }
      ],
      "name": "SellOrderPlaced",
      "type": "event"
    },
    {
      "inputs": [
        {
          "internalType": "uint256",
          "name": "",
          "type": "uint256"
        }
      ],
      "name": "buyOrders",
      "outputs": [
        {
          "internalType": "uint256",
          "name": "id",
          "type": "uint256"
        },
        {
          "internalType": "string",
          "name": "symbol",
          "type": "string"
        },
        {
          "internalType": "uint256",
          "name": "quantity",
          "type": "uint256"
        },
        {
          "internalType": "uint256",
          "name": "price",
          "type": "uint256"
        },
        {
          "internalType": "address",
          "name": "trader",
          "type": "address"
        },
        {
          "internalType": "string",
          "name": "user_id",
          "type": "string"
        },
        {
          "internalType": "string",
          "name": "order_id",
          "type": "string"
        }
      ],
      "stateMutability": "view",
      "type": "function",
      "constant": true
    },
    {
      "inputs": [],
      "name": "orderCount",
      "outputs": [
        {
          "internalType": "uint256",
          "name": "",
          "type": "uint256"
        }
      ],
      "stateMutability": "view",
      "type": "function",
      "constant": true
    },
    {
      "inputs": [
        {
          "internalType": "uint256",
          "name": "",
          "type": "uint256"
        }
      ],
      "name": "sellOrders",
      "outputs": [
        {
          "internalType": "uint256",
          "name": "id",
          "type": "uint256"
        },
        {
          "internalType": "string",
          "name": "symbol",
          "type": "string"
        },
        {
          "internalType": "uint256",
          "name": "quantity",
          "type": "uint256"
        },
        {
          "internalType": "uint256",
          "name": "price",
          "type": "uint256"
        },
        {
          "internalType": "address",
          "name": "trader",
          "type": "address"
        },
        {
          "internalType": "string",
          "name": "user_id",
          "type": "string"
        },
        {
          "internalType": "string",
          "name": "order_id",
          "type": "string"
        }
      ],
      "stateMutability": "view",
      "type": "function",
      "constant": true
    },
    {
      "inputs": [
        {
          "internalType": "string",
          "name": "symbol",
          "type": "string"
        },
        {
          "internalType": "uint256",
          "name": "quantity",
          "type": "uint256"
        },
        {
          "internalType": "uint256",
          "name": "price",
          "type": "uint256"
        },
        {
          "internalType": "string",
          "name": "user_id",
          "type": "string"
        },
        {
          "internalType": "string",
          "name": "order_id",
          "type": "string"
        }
      ],
      "name": "placeBuyOrder",
      "outputs": [],
      "stateMutability": "nonpayable",
      "type": "function"
    },
    {
      "inputs": [
        {
          "internalType": "string",
          "name": "symbol",
          "type": "string"
        },
        {
          "internalType": "uint256",
          "name": "quantity",
          "type": "uint256"
        },
        {
          "internalType": "uint256",
          "name": "price",
          "type": "uint256"
        },
        {
          "internalType": "string",
          "name": "user_id",
          "type": "string"
        },
        {
          "internalType": "string",
          "name": "order_id",
          "type": "string"
        }
      ],
      "name": "placeSellOrder",
      "outputs": [],
      "stateMutability": "nonpayable",
      "type": "function"
    },
    {
      "inputs": [
        {
          "internalType": "uint256",
          "name": "id",
          "type": "uint256"
        }
      ],
      "name": "getBuyOrder",
      "outputs": [
        {
          "components": [
            {
              "internalType": "uint256",
              "name": "id",
              "type": "uint256"
            },
            {
              "internalType": "string",
              "name": "symbol",
              "type": "string"
            },
            {
              "internalType": "uint256",
              "name": "quantity",
              "type": "uint256"
            },
            {
              "internalType": "uint256",
              "name": "price",
              "type": "uint256"
            },
            {
              "internalType": "address",
              "name": "trader",
              "type": "address"
            },
            {
              "internalType": "string",
              "name": "user_id",
              "type": "string"
            },
            {
              "internalType": "string",
              "name": "order_id",
              "type": "string"
            }
          ],
          "internalType": "struct OrderBook.Order",
          "name": "",
          "type": "tuple"
        }
      ],
      "stateMutability": "view",
      "type": "function",
      "constant": true
    },
    {
      "inputs": [
        {
          "internalType": "uint256",
          "name": "id",
          "type": "uint256"
        }
      ],
      "name": "getSellOrder",
      "outputs": [
        {
          "components": [
            {
              "internalType": "uint256",
              "name": "id",
              "type": "uint256"
            },
            {
              "internalType": "string",
              "name": "symbol",
              "type": "string"
            },
            {
              "internalType": "uint256",
              "name": "quantity",
              "type": "uint256"
            },
            {
              "internalType": "uint256",
              "name": "price",
              "type": "uint256"
            },
            {
              "internalType": "address",
              "name": "trader",
              "type": "address"
            },
            {
              "internalType": "string",
              "name": "user_id",
              "type": "string"
            },
            {
              "internalType": "string",
              "name": "order_id",
              "type": "string"
            }
          ],
          "internalType": "struct OrderBook.Order",
          "name": "",
          "type": "tuple"
        }
      ],
      "stateMutability": "view",
      "type": "function",
      "constant": true
    }
  ],
  "bytecode": "0x60806040526000805534801561001457600080fd5b50611bea806100246000396000f3fe608060405234801561001057600080fd5b506004361061007d5760003560e01c8063390ce0d31161005b578063390ce0d3146100f25780634a8393f3146101225780635f94fe6214610158578063b1af1bda146101745761007d565b80632453ffa8146100825780632920d301146100a057806335cea288146100bc575b600080fd5b61008a6101a4565b604051610097919061110a565b60405180910390f35b6100ba60048036038101906100b591906112ab565b6101aa565b005b6100d660048036038101906100d1919061137a565b61031e565b6040516100e99796959493929190611467565b60405180910390f35b61010c6004803603810190610107919061137a565b610518565b60405161011991906115fd565b60405180910390f35b61013c6004803603810190610137919061137a565b61076f565b60405161014f9796959493929190611467565b60405180910390f35b610172600480360381019061016d91906112ab565b610969565b005b61018e6004803603810190610189919061137a565b610adc565b60405161019b91906115fd565b60405180910390f35b60005481565b6000808154809291906101bc9061164e565b91905055506040518060e0016040528060005481526020018681526020018581526020018481526020013373ffffffffffffffffffffffffffffffffffffffff16815260200183815260200182815250600260008054815260200190815260200160002060008201518160000155602082015181600101908161023f91906118a2565b50604082015181600201556060820151816003015560808201518160040160006101000a81548173ffffffffffffffffffffffffffffffffffffffff021916908373ffffffffffffffffffffffffffffffffffffffff16021790555060a08201518160050190816102b091906118a2565b5060c08201518160060190816102c691906118a2565b509050507fa674298d327a675cdb33b0932a6714b289d3ffe20675dfa2ebc0a7b714844ff06000548686863387876040516103079796959493929190611467565b60405180910390a1610317610d33565b5050505050565b6001602052806000526040600020600091509050806000015490806001018054610347906116c5565b80601f0160208091040260200160405190810160405280929190818152602001828054610373906116c5565b80156103c05780601f10610395576101008083540402835291602001916103c0565b820191906000526020600020905b8154815290600101906020018083116103a357829003601f168201915b5050505050908060020154908060030154908060040160009054906101000a900473ffffffffffffffffffffffffffffffffffffffff1690806005018054610407906116c5565b80601f0160208091040260200160405190810160405280929190818152602001828054610433906116c5565b80156104805780601f1061045557610100808354040283529160200191610480565b820191906000526020600020905b81548152906001019060200180831161046357829003601f168201915b505050505090806006018054610495906116c5565b80601f01602080910402602001604051908101604052809291908181526020018280546104c1906116c5565b801561050e5780601f106104e35761010080835404028352916020019161050e565b820191906000526020600020905b8154815290600101906020018083116104f157829003601f168201915b5050505050905087565b61052061109e565b600260008381526020019081526020016000206040518060e001604052908160008201548152602001600182018054610558906116c5565b80601f0160208091040260200160405190810160405280929190818152602001828054610584906116c5565b80156105d15780601f106105a6576101008083540402835291602001916105d1565b820191906000526020600020905b8154815290600101906020018083116105b457829003601f168201915b5050505050815260200160028201548152602001600382015481526020016004820160009054906101000a900473ffffffffffffffffffffffffffffffffffffffff1673ffffffffffffffffffffffffffffffffffffffff1673ffffffffffffffffffffffffffffffffffffffff168152602001600582018054610654906116c5565b80601f0160208091040260200160405190810160405280929190818152602001828054610680906116c5565b80156106cd5780601f106106a2576101008083540402835291602001916106cd565b820191906000526020600020905b8154815290600101906020018083116106b057829003601f168201915b505050505081526020016006820180546106e6906116c5565b80601f0160208091040260200160405190810160405280929190818152602001828054610712906116c5565b801561075f5780601f106107345761010080835404028352916020019161075f565b820191906000526020600020905b81548152906001019060200180831161074257829003601f168201915b5050505050815250509050919050565b6002602052806000526040600020600091509050806000015490806001018054610798906116c5565b80601f01602080910402602001604051908101604052809291908181526020018280546107c4906116c5565b80156108115780601f106107e657610100808354040283529160200191610811565b820191906000526020600020905b8154815290600101906020018083116107f457829003601f168201915b5050505050908060020154908060030154908060040160009054906101000a900473ffffffffffffffffffffffffffffffffffffffff1690806005018054610858906116c5565b80601f0160208091040260200160405190810160405280929190818152602001828054610884906116c5565b80156108d15780601f106108a6576101008083540402835291602001916108d1565b820191906000526020600020905b8154815290600101906020018083116108b457829003601f168201915b5050505050908060060180546108e6906116c5565b80601f0160208091040260200160405190810160405280929190818152602001828054610912906116c5565b801561095f5780601f106109345761010080835404028352916020019161095f565b820191906000526020600020905b81548152906001019060200180831161094257829003601f168201915b5050505050905087565b60008081548092919061097b9061164e565b91905055506040518060e0016040528060005481526020018681526020018581526020018481526020013373ffffffffffffffffffffffffffffffffffffffff1681526020018381526020018281525060016000805481526020019081526020016000206000820151816000015560208201518160010190816109fe91906118a2565b50604082015181600201556060820151816003015560808201518160040160006101000a81548173ffffffffffffffffffffffffffffffffffffffff021916908373ffffffffffffffffffffffffffffffffffffffff16021790555060a0820151816005019081610a6f91906118a2565b5060c0820151816006019081610a8591906118a2565b509050507e94e7a6c4a890bc1644319a17238ca8c27a54648d9b371a734ccc2ed1a515d6600054868686338787604051610ac59796959493929190611467565b60405180910390a1610ad5610d33565b5050505050565b610ae461109e565b600160008381526020019081526020016000206040518060e001604052908160008201548152602001600182018054610b1c906116c5565b80601f0160208091040260200160405190810160405280929190818152602001828054610b48906116c5565b8015610b955780601f10610b6a57610100808354040283529160200191610b95565b820191906000526020600020905b815481529060010190602001808311610b7857829003601f168201915b5050505050815260200160028201548152602001600382015481526020016004820160009054906101000a900473ffffffffffffffffffffffffffffffffffffffff1673ffffffffffffffffffffffffffffffffffffffff1673ffffffffffffffffffffffffffffffffffffffff168152602001600582018054610c18906116c5565b80601f0160208091040260200160405190810160405280929190818152602001828054610c44906116c5565b8015610c915780601f10610c6657610100808354040283529160200191610c91565b820191906000526020600020905b815481529060010190602001808311610c7457829003601f168201915b50505050508152602001600682018054610caa906116c5565b80601f0160208091040260200160405190810160405280929190818152602001828054610cd6906116c5565b8015610d235780601f10610cf857610100808354040283529160200191610d23565b820191906000526020600020905b815481529060010190602001808311610d0657829003601f168201915b5050505050815250509050919050565b6000600190505b600054811161109b57600060016000838152602001908152602001600020600201541115611088576000600190505b6000548111611086576000600260008381526020019081526020016000206002015411156110735760026000828152602001908152602001600020600101604051610db49190611a17565b604051809103902060016000848152602001908152602001600020600101604051610ddf9190611a17565b6040518091039020148015610e2057506002600082815260200190815260200160002060030154600160008481526020019081526020016000206003015410155b156110725760006002600083815260200190815260200160002060020154600160008581526020019081526020016000206002015410610e76576002600083815260200190815260200160002060020154610e8e565b60016000848152602001908152602001600020600201545b905080600160008581526020019081526020016000206002016000828254610eb69190611a2e565b9250508190555080600260008481526020019081526020016000206002016000828254610ee39190611a2e565b925050819055507f67bbd05c013647253572430825cb55da7f58e4bbc5963d893568410bc41ef1696001600085815260200190815260200160002060000154600260008581526020019081526020016000206000015460016000878152602001908152602001600020600101846001600089815260200190815260200160002060030154600160008a815260200190815260200160002060040160009054906101000a900473ffffffffffffffffffffffffffffffffffffffff16600160008b8152602001908152602001600020600501600160008c8152602001908152602001600020600601600260008c815260200190815260200160002060040160009054906101000a900473ffffffffffffffffffffffffffffffffffffffff16600260008d8152602001908152602001600020600501600260008e81526020019081526020016000206006016040516110449b9a99989796959493929190611ae6565b60405180910390a160006001600085815260200190815260200160002060020154036110705750611086565b505b5b808061107e9061164e565b915050610d69565b505b80806110939061164e565b915050610d3a565b50565b6040518060e0016040528060008152602001606081526020016000815260200160008152602001600073ffffffffffffffffffffffffffffffffffffffff16815260200160608152602001606081525090565b6000819050919050565b611104816110f1565b82525050565b600060208201905061111f60008301846110fb565b92915050565b6000604051905090565b600080fd5b600080fd5b600080fd5b600080fd5b6000601f19601f8301169050919050565b7f4e487b7100000000000000000000000000000000000000000000000000000000600052604160045260246000fd5b61118c82611143565b810181811067ffffffffffffffff821117156111ab576111aa611154565b5b80604052505050565b60006111be611125565b90506111ca8282611183565b919050565b600067ffffffffffffffff8211156111ea576111e9611154565b5b6111f382611143565b9050602081019050919050565b82818337600083830152505050565b600061122261121d846111cf565b6111b4565b90508281526020810184848401111561123e5761123d61113e565b5b611249848285611200565b509392505050565b600082601f83011261126657611265611139565b5b813561127684826020860161120f565b91505092915050565b611288816110f1565b811461129357600080fd5b50565b6000813590506112a58161127f565b92915050565b600080600080600060a086880312156112c7576112c661112f565b5b600086013567ffffffffffffffff8111156112e5576112e4611134565b5b6112f188828901611251565b955050602061130288828901611296565b945050604061131388828901611296565b935050606086013567ffffffffffffffff81111561133457611333611134565b5b61134088828901611251565b925050608086013567ffffffffffffffff81111561136157611360611134565b5b61136d88828901611251565b9150509295509295909350565b6000602082840312156113905761138f61112f565b5b600061139e84828501611296565b91505092915050565b600081519050919050565b600082825260208201905092915050565b60005b838110156113e15780820151818401526020810190506113c6565b60008484015250505050565b60006113f8826113a7565b61140281856113b2565b93506114128185602086016113c3565b61141b81611143565b840191505092915050565b600073ffffffffffffffffffffffffffffffffffffffff82169050919050565b600061145182611426565b9050919050565b61146181611446565b82525050565b600060e08201905061147c600083018a6110fb565b818103602083015261148e81896113ed565b905061149d60408301886110fb565b6114aa60608301876110fb565b6114b76080830186611458565b81810360a08301526114c981856113ed565b905081810360c08301526114dd81846113ed565b905098975050505050505050565b6114f4816110f1565b82525050565b600082825260208201905092915050565b6000611516826113a7565b61152081856114fa565b93506115308185602086016113c3565b61153981611143565b840191505092915050565b61154d81611446565b82525050565b600060e08301600083015161156b60008601826114eb565b5060208301518482036020860152611583828261150b565b915050604083015161159860408601826114eb565b5060608301516115ab60608601826114eb565b5060808301516115be6080860182611544565b5060a083015184820360a08601526115d6828261150b565b91505060c083015184820360c08601526115f0828261150b565b9150508091505092915050565b600060208201905081810360008301526116178184611553565b905092915050565b7f4e487b7100000000000000000000000000000000000000000000000000000000600052601160045260246000fd5b6000611659826110f1565b91507fffffffffffffffffffffffffffffffffffffffffffffffffffffffffffffffff820361168b5761168a61161f565b5b600182019050919050565b7f4e487b7100000000000000000000000000000000000000000000000000000000600052602260045260246000fd5b600060028204905060018216806116dd57607f821691505b6020821081036116f0576116ef611696565b5b50919050565b60008190508160005260206000209050919050565b60006020601f8301049050919050565b600082821b905092915050565b6000600883026117587fffffffffffffffffffffffffffffffffffffffffffffffffffffffffffffffff8261171b565b611762868361171b565b95508019841693508086168417925050509392505050565b6000819050919050565b600061179f61179a611795846110f1565b61177a565b6110f1565b9050919050565b6000819050919050565b6117b983611784565b6117cd6117c5826117a6565b848454611728565b825550505050565b600090565b6117e26117d5565b6117ed8184846117b0565b505050565b5b81811015611811576118066000826117da565b6001810190506117f3565b5050565b601f82111561185657611827816116f6565b6118308461170b565b8101602085101561183f578190505b61185361184b8561170b565b8301826117f2565b50505b505050565b600082821c905092915050565b60006118796000198460080261185b565b1980831691505092915050565b60006118928383611868565b9150826002028217905092915050565b6118ab826113a7565b67ffffffffffffffff8111156118c4576118c3611154565b5b6118ce82546116c5565b6118d9828285611815565b600060209050601f83116001811461190c57600084156118fa578287015190505b6119048582611886565b86555061196c565b601f19841661191a866116f6565b60005b828110156119425784890151825560018201915060208501945060208101905061191d565b8683101561195f578489015161195b601f891682611868565b8355505b6001600288020188555050505b505050505050565b600081905092915050565b60008190508160005260206000209050919050565b600081546119a1816116c5565b6119ab8186611974565b945060018216600081146119c657600181146119db57611a0e565b60ff1983168652811515820286019350611a0e565b6119e48561197f565b60005b83811015611a06578154818901526001820191506020810190506119e7565b838801955050505b50505092915050565b6000611a238284611994565b915081905092915050565b6000611a39826110f1565b9150611a44836110f1565b9250828203905081811115611a5c57611a5b61161f565b5b92915050565b60008154611a6f816116c5565b611a7981866113b2565b94506001821660008114611a945760018114611aaa57611add565b60ff198316865281151560200286019350611add565b611ab3856116f6565b60005b83811015611ad557815481890152600182019150602081019050611ab6565b808801955050505b50505092915050565b600061016082019050611afc600083018e6110fb565b611b09602083018d6110fb565b8181036040830152611b1b818c611a62565b9050611b2a606083018b6110fb565b611b37608083018a6110fb565b611b4460a0830189611458565b81810360c0830152611b568188611a62565b905081810360e0830152611b6a8187611a62565b9050611b7a610100830186611458565b818103610120830152611b8d8185611a62565b9050818103610140830152611ba28184611a62565b90509c9b50505050505050505050505056fea26469706673582212200b9d4663af67e41a66949a07fd0d67cf1b156f39402b1fbad4ee41f3b068b2a864736f6c63430008130033",
  "immutableReferences": {},
  "source": "// SPDX-License-Identifier: MIT\npragma solidity ^0.8.0;\n\ncontract OrderBook {\n    struct Order {\n        uint id;\n        string symbol;\n        uint quantity;\n        uint price;\n        address trader;\n        string user_id;\n        string order_id;\n    }\n\n    uint public orderCount = 0;\n    mapping(uint => Order) public buyOrders;\n    mapping(uint => Order) public sellOrders;\n\n    event BuyOrderPlaced(uint id, string symbol, uint quantity, uint price, address trader, string user_id, string order_id);\n    event SellOrderPlaced(uint id, string symbol, uint quantity, uint price, address trader, string user_id, string order_id);\n    event OrderMatched(uint buyOrderId, uint sellOrderId, string symbol, uint quantity, uint price, address buyer, string buyer_user_id, string buyer_order_id, address seller, string seller_user_id, string seller_order_id);\n\n    function placeBuyOrder(string memory symbol, uint quantity, uint price, string memory user_id, string memory order_id) public {\n        orderCount++;\n        buyOrders[orderCount] = Order(orderCount, symbol, quantity, price, msg.sender, user_id, order_id);\n        emit BuyOrderPlaced(orderCount, symbol, quantity, price, msg.sender, user_id, order_id);\n        matchOrders();\n    }\n\n    function placeSellOrder(string memory symbol, uint quantity, uint price, string memory user_id, string memory order_id) public {\n        orderCount++;\n        sellOrders[orderCount] = Order(orderCount, symbol, quantity, price, msg.sender, user_id, order_id);\n        emit SellOrderPlaced(orderCount, symbol, quantity, price, msg.sender, user_id, order_id);\n        matchOrders();\n    }\n\n    function matchOrders() internal {\n        for (uint i = 1; i <= orderCount; i++) {\n            if (buyOrders[i].quantity > 0) {\n                for (uint j = 1; j <= orderCount; j++) {\n                    if (sellOrders[j].quantity > 0) {\n                        if (keccak256(bytes(buyOrders[i].symbol)) == keccak256(bytes(sellOrders[j].symbol)) &&\n                            buyOrders[i].price >= sellOrders[j].price) {\n                            \n                            uint matchQuantity = buyOrders[i].quantity < sellOrders[j].quantity ? buyOrders[i].quantity : sellOrders[j].quantity;\n\n                            buyOrders[i].quantity -= matchQuantity;\n                            sellOrders[j].quantity -= matchQuantity;\n\n                            emit OrderMatched(\n                                buyOrders[i].id, sellOrders[j].id, buyOrders[i].symbol, matchQuantity, buyOrders[i].price,\n                                buyOrders[i].trader, buyOrders[i].user_id, buyOrders[i].order_id,\n                                sellOrders[j].trader, sellOrders[j].user_id, sellOrders[j].order_id\n                            );\n\n                            if (buyOrders[i].quantity == 0) {\n                                break;\n                            }\n                        }\n                    }\n                }\n            }\n        }\n    }\n\n    function getBuyOrder(uint id) public view returns (Order memory) {\n        return buyOrders[id];\n    }\n\n    function getSellOrder(uint id) public view returns (Order memory) {\n        return sellOrders[id];\n    }\n}",
  "sourcePath": "/Users/sanjit/Documents/Projects/block-trade/contracts/OrderBook.sol",
  "compiler": {
    "name": "solc",
    "version": "0.8.19+commit.7dd6d404.Emscripten.clang"
  },
  "schemaVersion": "3.4.16",
  "updatedAt": "2024-07-23T20:30:59.645Z",
  "networkType": "ethereum",
  "devdoc": {
    "kind": "dev",
    "methods": {},
    "version": 1
  },
  "userdoc": {
    "kind": "user",
    "methods": {},
    "version": 1
  }
}